:100000000C9485080C94AD080C94AD080C94AD08C4
:100010000C94AD080C94AD080C94AD080C94AD088C
:100020000C94AD080C94AD080C94AD080C94AD087C
:100030000C94AD080C94AD080C94AD080C94AD086C
:100040000C945E110C94AD080C94370B0C94110BAE
:100050000C94AD080C94AD080C94AD080C94AD084C
:100060000C94AD080C94AD0805A84CCDB2D44EB993
:100070003836A9020C50B9918688083CA6AAAA2A4B
:10008000BE000000803F101030020020C0C0F0F021
:100090003C3CFFFFFFFF3C3CF0F0C0C0C0C0F0F0B4
:1000A0003C3CFFFFFFFF3C3CF0F0C0C0C3C3333318
:1000B000CFCF33333333CFCF3333C3C33333CFCF48
:1000C00003030F0F0F0F0303CFCF3333181030028A
:1000D0000030F0F0FCFCFCFC3C3C3F3FFFFFFFFF2E
:1000E0003F3F3C3CFCFCFCFCF0F0F0F0FCFCFCFC7A
:1000F0003C3C3F3FFFFFFFFF3F3F3C3CFCFCFCFC28
:10010000F0F0C3C3C3C333333F3F0F0F3333333335
:100110000F0F3F3F3333C3C3C3C303033333FFFF67
:10012000CFCF0F0F333333330F0FCFCFFFFF333327
:10013000030316103002002CFCFCC0C0F3F33C3C5F
:10014000F0F0F0F0F0F03C3CF3F3C0C0FCFC000039
:10015000C0C0F3F33C3CF0F0F0F0F0F03C3CF3F3C3
:10016000C0C000000303CFCF3F3F0F0F0F0F0F0F93
:100170000F0F0F0F3F3FCFCF03033F3F03033F3F1F
:10018000CFCFCFCF0F0FCFCFCFCF3F3F03033F3FD7
:100190000C30300B012000C0F87C3E3EFCF8C00063
:1001A0000000000080E078FEFE000000000000F08B
:1001B0007C3C3E3EFEFCE0000000007C3E3E3EFEFD
:1001C000F8C0000000000000000000F8FEFE000083
:1001D000000000FEFE3E3E3E3E3E000000000000ED
:1001E00080F0FC3E3E3EFC000000003E3E3E3E3EB7
:1001F0003E3EFEFE00000000C0F8FE3E7EFCE00039
:1002000000000000E0FC7E3EFEF8C00000000000A0
:100210000000C0E0C00000000000F0FF0F00000080
:10022000F9FFFFF000000000070300FFFF000000DF
:10023000000000010000000000FFFF0000000000BF
:1002400000000000FFFF00000000000000E0FF1FB2
:10025000FFFF0000000000FFFF00000000000000A2
:10026000000000E0FF3F0000000000000000000070
:1002700000000000C0FC7F0300000000FFFF000042
:1002800000FFFF00000000FEFF03000000FFFFF082
:100290000000000000003F7F3F0000000000FFFF63
:1002A0000000E0FF1F00FFFF00000000000000FF53
:1002B000FF00000000000000000000E0FE1F010041
:1002C00000000000F8F8FCFFC7000000000000C0BC
:1002D000FE3F0300FFFF00000000003F3F3E7EFCAA
:1002E000F8E00000000000FFFF80F07C7CF8F000E8
:1002F00000000000000080F8FF0700000000000080
:10030000019FFFF8FE1F0100000000FFFFC000007A
:1003100080FFFFFF00000000000000000000000060
:100320000000FFFFC0FC7F030000FFFF0000000093
:10033000000000FFFF0000000000000000E0FE0FD2
:100340000100000000000000000000010FFFF800A5
:100350000000F8FFE7E0E0E0FFFFE0E0E000000081
:100360000000000007FFFE00000000FFFFFF030089
:100370000001FFFF0000000000F0FF0F0000000080
:10038000000000C0FC3F03031FFFFCC00000000092
:100390000F1F3E3E0F01FFFF000000000000008025
:1003A00000000000000007FFFF07000000FCFF073F
:1003B00000000000000000FFFF000000000000E05F
:1003C000FE0F000000000000000000000000000020
:1003D000C0FF7F000000030303030303FFFF0303C9
:1003E0000300000000000000C0FF7F000000000FBD
:1003F000FFFF80000080FF7F00000000FEFF030081
:1004000000000000000000FFFF8000000080FFFFF0
:10041000000000000000000080FCFF07000000005A
:100420000000FFFFFF000000000000031F3F7C7C76
:100430003F1F0300000000007C7C7C7F7F7C7C7C75
:100440000000007F7F7C7C7C7C7C7C000000003F87
:100450007E7C7C7E1F070000000000000000000082
:100460007F7F00000000001F3E7C7C3E1F070000D5
:1004700000000000031F7F7C7C3F0700000000009D
:100480007F7F000000000000000000011F3F7E7C15
:100490007E3F1F01000000003E7C7C7E3F0F01007C
:1004A00000000000000000010000000000000A1031
:1004B0002E0C0114000000000000000000000000ED
:1004C000000000000000000078FC020303030302A8
:1004D000FC780000000000000000FF7E00000283A6
:1004E00083838302FC780000028383838302FC7889
:1004F0007EFF008080808000FF7E78FC0283838303
:100500008302000078FC02838383830200000002E0
:10051000030303030302FC7878FC028383838302D2
:10052000FC7878FC028383838302FC7800000060FF
:10053000F0F060000000000000000000000000007B
:100540001E3F40C0C0C0C0403F1E00000000000071
:100550000000FF7E1C3E41C1C1C1C141000000003E
:1005600041C1C1C1C1413E1C0000010101010101A5
:10057000FF7E000041C1C1C1C1413E1C1C3E41C1C2
:10058000C1C1C1413E1C0000000000000000FF7E10
:100590001C3E41C1C1C1C1413E1C000041C1C1C19D
:1005A000C1413E1C0810206002380000000000001D
:1005B0000000000000FE0000000000000E000E0021
:1005C000000000D0BE90D0BE9000001C62FFC28030
:1005D00000000C12924CB0880600807C62B21CC0F5
:1005E000000000000E0E0000000000E018040202EF
:1005F00000000002020418E000000024187E182405
:100600000000808080F080808000000000000000FA
:1006100000000080808080000000000000000000DA
:1006200000000000806018060000F804C2320CF8D8
:100630000000000404FE0000000000028242221CB0
:1006400000000002222222DC0000C0A09884FE806C
:100650008000001E121222C20000F844222222C092
:100660000000000202C2320A0600008C5222528CA4
:1006700000003C42424226F80000000030300000FA
:10068000000000003030000000008080404020204A
:10069000100040404040404000001020204040807A
:1006A000800000028242221C0000000000000000C6
:1006B0000000000000050000000000000000000035
:1006C000000000070000070000000004040F0403FE
:1006D00000000402010304040300030404040503EE
:1006E00004000000000000000000000306081010D5
:1006F00000000010100806030000000000000000C9
:10070000000000000007000000000000160E0000BE
:1007100000000000000000000000000006060000CD
:1007200000000402010000000000010304040201B3
:10073000000000040407040400000007040404048B
:10074000000000040404040300000000000007008F
:100750000000000404040403000001020404040374
:100760000000000007000000000000030404040370
:10077000000000040404020100000000060600005E
:1007800000000000160E000000000000010102023F
:100790000400010101010101000004020201010045
:1007A00000000000050000000000F804728AFA84CE
:1007B000780000C0380638C0000000FE222222DC8B
:1007C0000000F804020202020000FE02020204F825
:1007D000000000FE22222222000000FE222222220D
:1007E0000000F804020222E20000FE20202020FE89
:1007F0000000000202FE020200000000000202FEF1
:100800000000FE40B0080402000000FE00000000EE
:100810000000FE0C7080700CFE00FE0C30C000FE6C
:100820000000F804020204F80000FE424242221CCA
:100830000000F804020204F8000000FE4242A21C7C
:100840000000001C224242800000020202FE02025E
:100850000200FE00000000FE00000638C000C038A4
:1008600006003EC0F00EF0C03E00000698609806FC
:100870000000000618E0180600000202C2320A0654
:1008800000000000FE020202020000061860800064
:10089000000002020202FE00000040300C0C30405A
:1008A0000000000000000000000001020404040039
:1008B0000000060101010101060000070404040311
:1008C00000000102040404040000070404040201FF
:1008D00000000007040404040000000700000000FA
:1008E00000000102040404070000070000000007E4
:1008F00000000004040704040000000404040403CE
:1009000000000700000102040000000704040404C2
:1009100000000700000100000700070000000307B7
:1009200000000102040402010000070000000000B2
:1009300000000102040C1211100000070000010663
:10094000000000040404040300000000000700008D
:100950000000030404040403000000000106010079
:10096000000000070000000700000006010001066B
:100970000000000000070000000006050404040455
:10098000000000001F101010100000000000010205
:100990000400101010101F000000000000000000F4
:1009A0000000080808080808000000000204000011
:1009B000000000E0101010F0000000FE201010E019
:1009C000000000E010101010000000E0101010FEF9
:1009D000000000E0909090E000000020FC22222225
:1009E000020000E0101010F0000000FE201010E0E7
:1009F00000001010F2000000000000101010F200C3
:100A0000000000FE804020100000000202FE0000F6
:100A10000000F02010F02010F00000F0201010E096
:100A2000000000E0101010E0000000F0201010E0C6
:100A3000000000E0101010F0000000F02010107016
:100A400000000060909090200000002020FC2020FA
:100A5000200000F0000000F00000007080008070B6
:100A60000000F000C030C000F0000030C0C0300016
:100A700000000030C0008070000000101090503066
:100A800000000080807E02020000000000FE0000E6
:100A900000000002027E80800000008080000000D4
:100AA00080000000000000000000000000000000C6
:100AB000000000030404020700000007040404030C
:100AC00000000003040404040000000304040207FF
:100AD00000000003040404040000000007000000FC
:100AE000000000332424221F00000007000000073C
:100AF00000000000070404000000202020201F0048
:100B000000000007000102040000000000070404C8
:100B100000000700000700000700000700000007B2
:100B200000000003040404030000003F0404040365
:100B3000000000030404023F000000070000000062
:100B40000000000204040403000000000003040489
:100B50000400000304040207000000000304030073
:100B60000000010601000106010000060101060067
:100B700000002020310E03000000000605040404DC
:100B800000000000001F101000000000000700001F
:100B900000000010101F0000000001000001010112
:100BA00000000000000000000000050800FF0C4BE2
:100BB00000000000003E5B4F5B3E3E6B4F6B3E1CF7
:100BC0003E7C3E1C183C7E3C181C577D571C1C5E0E
:100BD0007F5E1C00183C1800FFE7C3E7FF001824E5
:100BE0001800FFE7DBE7FF30483A060E262979298F
:100BF00026407F050507407F05253F5A3CE73C5AC4
:100C00007F3E1C1C08081C1C3E7F14227F22145FA0
:100C10005F005F5F06097F017F006689956A6060FB
:100C200060606094A2FFA29408047E040810207EF5
:100C3000201008082A1C08081C2A08081E1010107A
:100C4000100C1E0C1E0C30383E3830060E3E0E06C0
:100C5000000000000000005F000000070007001413
:100C60007F147F14242A7F2A1223130864623649D2
:100C70005620500008070300001C224100004122BA
:100C80001C002A1C7F1C2A08083E080800807030BF
:100C9000000808080808000060600020100804022E
:100CA0003E5149453E00427F400072494949462134
:100CB00041494D331814127F1027454545393C4AA8
:100CC00049493141211109073649494936464949BF
:100CD000291E000014000000403400000008142207
:100CE0004114141414140041221408020159090675
:100CF0003E415D594E7C1211127C7F494949363E76
:100D0000414141227F4141413E7F494949417F095B
:100D10000909013E414151737F0808087F00417F66
:100D200041002040413F017F081422417F40404064
:100D3000407F021C027F7F0408107F3E4141413EFC
:100D40007F090909063E4151215E7F09192946267E
:100D50004949493203017F01033F4040403F1F2082
:100D600040201F3F4038403F631408146303047859
:100D700004036159494D43007F4141410204081079
:100D800020004141417F04020102044040404040B4
:100D9000000307080020545478407F284444383822
:100DA00044444428384444287F3854545418000894
:100DB0007E090218A4A49C787F0804047800447D6E
:100DC00040002040403D007F1028440000417F400B
:100DD000007C047804787C0804047838444444385F
:100DE000FC1824241818242418FC7C08040408483F
:100DF0005454542404043F44243C4040207C1C2090
:100E000040201C3C4030403C44281028444C9090EA
:100E1000907C4464544C4400083641000000770044
:100E200000004136080002010204023C2623263C51
:100E30001EA1A161123A4040207A385454555921DC
:100E400055557941215454784121555478402054C6
:100E50005579400C1E527212395555555939545412
:100E6000545939555454580000457C410002457D81
:100E7000420001457C40F0292429F0F0282528F083
:100E80007C545545002054547C547C0A097F4932D7
:100E9000494949323248484832324A4848303A4152
:100EA00041217A3A42402078009DA0A07D394444F7
:100EB00044393D4040403D3C24FF2424487E494382
:100EC000662B2FFC2F2BFF0929F620C0887E0903F3
:100ED00020545479410000447D413048484A32381A
:100EE0004040227A007A0A0A727D0D19317D262946
:100EF000292F28262929292630484D40203808083E
:100F0000080808080808382F10C8ACBA2F10283471
:100F1000FA00007B000008142A142222142A140864
:100F2000AA005500AAAA55AA55AA000000FF001061
:100F30001010FF00141414FF001010FF00FF101019
:100F4000F010F0141414FC001414F700FF0000FF5C
:100F500000FF1414F404FC141417101F10101F10B9
:100F60001F1414141F00101010F0000000001F10B8
:100F70001010101F10101010F010000000FF1010C3
:100F800010101010101010FF10000000FF140000CF
:100F9000FF00FF00001F10170000FC04F4141417DA
:100FA00010171414F404F40000FF00F714141414C0
:100FB000141414F700F7141414171410101F101F32
:100FC000141414F4141010F010F000001F101F007F
:100FD00000001F14000000FC140000F010F01010BE
:100FE000FF10FF141414FF141010101F0000000055
:100FF000F010FFFFFFFFFFF0F0F0F0F0FFFFFF0049
:1010000000000000FFFF0F0F0F0F0F38444438445B
:101010007C2A2A3E147E02020606027E027E0263BB
:10102000554941633844443C04407E201E2006025A
:101030007E020299A5E7A5991C2A492A1C4C720137
:10104000724C304A4D4D303048784830BC625A4678
:101050003D3E494949007E0101017E2A2A2A2A2A69
:1010600044445F444440514A444040444A51400053
:1010700000FF0103E080FF000008086B6B083612D8
:10108000362436060F090F0600001818000000105D
:1010900010003040FF0101001F01011E00191D1743
:1010A00012003C3C3C3C000000000000000000241A
:1010B0000027002A0000000000250028002B000067
:1010C0000000002300260029000404040404040492
:1010D00004020202020202030303030303010204E7
:1010E00008102040800102040810200102040810AA
:1010F00020000000080002010000030407000000B7
:10110000000000000000AC14A61411241FBECFEF95
:10111000D8E0DEBFCDBF23E0A6E1B3E001C01D9261
:10112000A73DB207E1F713E0A0E0B1E0E8EBF4E39C
:1011300002C005900D92A631B107D9F718E0C4E8B6
:10114000D8E004C02197FE010E94AA16C338D10737
:10115000C9F70E94A8110C944F1A0C9400009C012E
:10116000803167E29607D4F4813F78ED9707C4F0A9
:1011700097FF05C031952195310992E001C091E0BA
:101180004AE050E08AE02417350764F09F5FBA0117
:10119000869FA001879F500D1124F5CF85E008950B
:1011A00086E00895892F0895CF92DF92EF92FF9203
:1011B0000F931F93CF93DF936C017A018B01C0E0F3
:1011C000D0E0CE15DF0581F0D8016D918D01D601FB
:1011D000ED91FC910190F081E02DC6010995892BDC
:1011E00011F02196EECF7E01C701DF91CF911F91C3
:1011F0000F91FF90EF90DF90CF900895FC01538DF9
:10120000448D252F30E0842F90E0821B930B5417E0
:1012100010F0CF96089501970895FC01918D828D6D
:10122000981761F0828DDF01A80FB11D5D968C913A
:10123000928D9F5F9F73928F90E008958FEF9FEF45
:101240000895FC01918D828D981731F0828DE80F01
:10125000F11D858D90E008958FEF9FEF0895FC01BB
:10126000918D228D892F90E0805C9F4F821B910988
:101270008F739927089588E193E00E942F0921E058
:10128000892B09F420E0822F0895FC01848DDF0171
:10129000A80FB11DA35ABF4F2C91848D90E00196E9
:1012A0008F739927848FA689B7892C93A089B189D8
:1012B0008C91837080648C93938D848D981306C079
:1012C0000288F389E02D80818F7D80830895EF92DD
:1012D000FF920F931F93CF93DF93EC0181E0888FF0
:1012E0009B8D8C8D981305C0E889F989808185FDD7
:1012F00026C0F62E0B8D10E00F5F1F4F0F731127C6
:10130000E02E8C8DE8120CC00FB607FCFACFE889EE
:10131000F989808185FFF5CFCE010E944509F1CF83
:101320008B8DFE01E80FF11DE35AFF4FF0829FB74E
:10133000F8940B8FEA89FB89808180620AC09FB78D
:10134000F894EE89FF896083E889F9898081837048
:10135000806480839FBF81E090E0DF91CF911F91F7
:101360000F91FF90EF900895CF93DF93EC01888D5C
:101370008823C9F0EA89FB89808185FD05C0A88999
:10138000B9898C9186FD0FC00FB607FCF5CF80811F
:1013900085FFF2CFA889B9898C9185FFEDCFCE0169
:1013A0000E944509E7CFDF91CF91089580E090E05A
:1013B000892B29F00E943B0981110C9400000895AB
:1013C00008950895089580E090E0089583E00E94D4
:1013D0009010019789F460E082E00E94B9101092A9
:1013E000C0031092C10360EC72E085EB93E00E94B1
:1013F0001E100E94D40FEACF1092C0031092C103B6
:101400006BEC72E085EB93E00E941E100E94D40FFB
:1014100061E086E00E94B9106AEF70E080E090E041
:101420000E94241160E086E00E94B91060ED77E030
:1014300080E090E00E94241161E082E00C94B910F9
:101440000C94EB180C94EB180E943A1A4F925F928E
:101450006F927F928F929F92AF92BF92CF92DF92C4
:10146000EF92FF920F931F93CF93DF93CDB7DEB729
:1014700027970FB6F894DEBF0FBECDBF9F838E8334
:10148000FC01A480B580678570896A197B0980E0BA
:1014900090E00E942E156B017C01EE81FF81668138
:1014A00077816A197B0980E090E00E942E159B01EC
:1014B000AC01C701B6010E94221720E030E040E7EE
:1014C00053E40E946B1520E030E046E153E40E94B3
:1014D000B11625E33AEF4EE85CE30E946B152B0151
:1014E0003C010E941D174B015C01EE81FF81658567
:1014F00070E080E090E00E9430152AE939E949E97E
:101500005FE30E9422176B017C01C301B2010E94BC
:10151000021869837A838B839C83EE81FF81138118
:10152000F281FD83612F70E06F5F7F4F072E000C0B
:10153000880B990B0E9430152B013C0129813A81BF
:101540004B815C81C701B6010E946B159B01AC0108
:10155000C301B2010E94B1160E94941769838D8164
:10156000682F70E06F5F7F4F072E000C880B990B80
:101570000E9430152B013C01A7019601C501B40161
:101580000E946B159B01AC01C301B2010E94B11610
:101590000E949417462FEE24E39401E02981612FE5
:1015A0008D810E94201027960FB6F894DEBF0FBEE3
:1015B000CDBFDF91CF911F910F91FF90EF90DF9002
:1015C000CF90BF90AF909F908F907F906F905F90E3
:1015D0004F9008950F931F93CF93DF93EC01888171
:1015E0009981009729F02A813B812617370788F4D3
:1015F0008B016F5F7F4F0E947419009761F0998390
:1016000088831B830A832C813D81232B11F4FC01E9
:10161000108281E001C080E0DF91CF911F910F9196
:1016200008951F920F920FB60F9211242F933F939C
:101630004F935F936F937F938F939F93AF93BF93DA
:10164000EF93FF9388E193E00E944509FF91EF91AA
:10165000BF91AF919F918F917F916F915F914F91CA
:101660003F912F910F900FBE0F901F9018951F92D2
:101670000F920FB60F9211242F938F939F93EF9396
:10168000FF93E0912803F09129038081E0912E03DC
:10169000F0912F0382FD12C09081809131038F5F02
:1016A0008F7320913203821751F0E0913103F0E003
:1016B000E85EFC4F958F8093310301C08081FF91DC
:1016C000EF919F918F912F910F900FBE0F901F90D0
:1016D00018950DB407FEFDCF2898209A2A9A2298D3
:1016E0008CB58F7B8CBD08958CB580648CBD2A9899
:1016F000229A08950F936034D0F54033C0F501303D
:10170000C9F42130A1F5842F869586958695E62F1C
:10171000F0E090E4899FE00DF11D1124E050FF4FAF
:10172000477081E090E001C0880F4A95EAF7908108
:1017300089271CC0842F869586958695E62FF0E034
:10174000477090E4899FE00DF11D1124E050FF4F98
:1017500081E090E001C0880F4A95EAF7213019F442
:101760009081892B03C080959081892380830F917C
:1017700008952F923F924F925F926F927F928F9235
:101780009F92AF92BF92CF92DF92EF92FF920F9310
:101790001F93CF93DF93CDB7DEB72F970FB6F89493
:1017A000DEBF0FBECDBF1C01FC01F585F983FC0136
:1017B000B380A280C090BA03D090B90381E0982E84
:1017C000F9819F1A8F2E8194880C4F2F4B0D0C2D71
:1017D0002D2D6A2D85EB93E00E947A0B4B2D2981EC
:1017E000421B2D2D6A2D85EB93E00E947A0B6981B7
:1017F0006A0D2D2D4B2D85EB93E00E947A0B6A2DFF
:101800003981631B2D2D4B2D85EB93E00E947A0BC4
:101810001D828D81998189170CF05CC097FC05C0F1
:101820009150998383948394980CED81EF5FED83BD
:101830008E2F880F8F5F980E7E2E7A0C0C2D2D2DFB
:10184000F980FB0C4F2D672D85EB93E00E947A0BFE
:10185000EA2CFD81EF1A2D2D4F2D6E2D85EB93E097
:101860000E947A0B2D2DFB2C3981F31A4F2D672DF9
:1018700085EB93E00E947A0B2D2D4F2D6E2D85EB7D
:1018800093E00E947A0BFD80FB0C2D2D4F2DE980FB
:10189000EA0C6E2D85EB93E00E947A0B2D2D4F2DD7
:1018A000FA2C8981F81A6F2D85EB93E00E947A0B50
:1018B0007B2C9D81791A2D2D472D6E2D85EB93E084
:1018C0000E947A0B2D2D472D6F2D85EB93E00E9402
:1018D0007A0B9FCFE6E9F0E0FF87EE872E853F8504
:1018E000B901330F880B990B0E94301525E33AEFAD
:1018F0004EE85CE30E946B152B013C010E941D1712
:101900004B015C01F101658570E080E090E00E9490
:1019100030156B017C0120E030E040EC5FE30E9479
:10192000221769877A878B879C87C301B2010E943F
:1019300002182B013C01F101638170E06F5F7F4F62
:10194000072E000C880B990B0E94301569837A834F
:101950008B839C83F101628170E06F5F7F4F072E64
:10196000000C880B990B0E9430156D837E838F834A
:101970009887A3019201C701B6010E946B152981C6
:101980003A814B815C810E94B1160E9494176D8749
:10199000A7019601C501B4010E946B152D813E81FE
:1019A0004F8158850E94B1160E949417162FA301EB
:1019B000920169857A858B859C850E946B152981AA
:1019C0003A814B815C810E94B1160E949417F62ED9
:1019D00029853A854B855C85C501B4010E946B154C
:1019E0002D813E814F8158850E94B1160E94941727
:1019F000862FE090BA030091B9032D85412F6F2DFA
:101A00000E9420102E853F85225E3F4F3F872E8704
:101A1000243A314009F062CFF1018585803108F424
:101A2000A2C025EA30E03F872E87EE85FF85BF0103
:101A3000FF0F880B990B0E94301525E33AEF4EE813
:101A40005CE30E946B152B013C010E941D174B01AA
:101A50005C01F101658570E080E090E00E94301546
:101A60006B017C0126E636E646EA5FE30E94221718
:101A700069877A878B879C87C301B2010E9402180D
:101A80002B013C01F101638170E06F5F7F4F072EF6
:101A9000000C880B990B0E94301569837A838B8325
:101AA0009C83F101628170E06F5F7F4F072E000C15
:101AB000880B990B0E9430156D837E838F839887E6
:101AC000A3019201C701B6010E946B1529813A81D9
:101AD0004B815C810E94B1160E949417162FA701BA
:101AE0009601C501B4010E946B152D813E814F8185
:101AF00058850E94B1160E949417F62EA3019201F8
:101B000069857A858B859C850E946B1529813A8130
:101B10004B815C810E94B1160E949417D62E2985B4
:101B20003A854B855C85C501B4010E946B152D81FA
:101B30003E814F8158850E94B1160E949417862FCE
:101B4000E090BA030091B903212F4F2D6D2D0E9413
:101B500020102E853F85225E3F4F3F872E872539F7
:101B6000314009F062CF2F960FB6F894DEBF0FBE5A
:101B7000CDBFDF91CF911F910F91FF90EF90DF903C
:101B8000CF90BF90AF909F908F907F906F905F901D
:101B90004F903F902F9008955F926F927F928F9217
:101BA0009F92AF92BF92CF92DF92EF92FF920F93EC
:101BB0001F93CF93DF93EC016A3009F464C06D305A
:101BC00009F4CBC0162F8985681778F44E818B8570
:101BD000840F8F5F8B8790E020E430E0241B310975
:101BE000281739070CF44FC0B8C09A85282F30E069
:101BF000290F311D462F50E0421753073CF7DD8077
:101C0000CC80FC84BB84181BEF80E694E694E694B9
:101C100081E08E1508F43DC0EB2C38E0A32EAF0C0C
:101C20009E2D9B198E81282F30E0E92FF0E02E1792
:101C30003F0764F2891789F0A885B0E0AA0FBB1F9F
:101C4000AA57BD4F819FE00DF11D112436968D914D
:101C50009C91E80FF91F949001C0912C8F2C90FE5D
:101C600003C00D2D2C2D04C021E0C11020E00D2D4E
:101C7000482D6E2DCE010E947A0B96948394A81065
:101C8000EECFE394CDCF9C858F81890F8C871B8607
:101C900064C0ED85FE852E8130E0CF01B9010E9440
:101CA0006016812F90E00E946016EE9EA001EF9ECC
:101CB000500D1124649F4001659F900C749F900CFF
:101CC0001124829FA001839F500D929F500D1124DB
:101CD000840E951E612C712C86E0880E911C1B2DA4
:101CE000812F8B199E81891778F5A885B0E0AA0FFE
:101CF000BB1FAA57BD4F2D853E85629EF001639E96
:101D0000F00D729EF00D1124E80DF91DE80FF11D84
:101D10008D919C91E80FF91FA490512C452D4F0DEA
:101D2000A0FE03C00D2D2C2D04C021E0C11020E029
:101D30000D2D612FCE010E947A0BA694539488E05A
:101D40005812ECCF1F5FCCCF8FEF681A780A88E06B
:101D5000F80E6E1408F4C3CF39CF81E090E0DF9124
:101D6000CF911F910F91FF90EF90DF90CF90BF9098
:101D7000AF909F908F907F906F905F9008958F921B
:101D80009F92AF92BF92CF92DF92EF92FF92CF934A
:101D9000DF93CDB7DEB7A1970FB6F894DEBF0FBEC5
:101DA000CDBF7C01DC01ED91FC910084F185E02D3B
:101DB0000995F70180859185908B87870190F08147
:101DC000E02D0084F185E02DC7010995D7011E960D
:101DD0008C911E97811177C012969C9112979F5FEC
:101DE0001B968C911B97282F220F820F981B1C96F5
:101DF0002C911C9713968C91222311F0865F01C0C1
:101E0000855F9093C0038093C103F701C784D08896
:101E1000C6010E94AF08D7011B96FC90F81AFF205C
:101E200041F06EEE72E085EB93E00E941E10FA9492
:101E3000F6CF0D2C000CEE08FF08F7FE25C06DE272
:101E400085EB93E00E94CC0D22273327A9012C19A2
:101E50003D094E095F0919A2FE01B1967F019AE082
:101E6000892E912CA12CB12CCA01B901A501940194
:101E70000E948816605DD7016E937D0121153105A2
:101E80004105510589F71AC0A701960119A2FE0163
:101E9000B1967F018AE0882E912CA12CB12CCA0129
:101EA000B901A50194010E948816605DD7016E9367
:101EB0007D01211531054105510589F7B70185EBF4
:101EC00093E00E940E10A1960FB6F894DEBF0FBEED
:101ED000CDBFDF91CF91FF90EF90DF90CF90BF907B
:101EE000AF909F908F9008950DB407FEFDCF089599
:101EF000833081F028F4813099F08230A1F0089588
:101F00008730A9F08830B9F08430D1F48091800016
:101F10008F7D03C0809180008F778093800008952B
:101F200084B58F7702C084B58F7D84BD089580917C
:101F3000B0008F7703C08091B0008F7D8093B00098
:101F400008953FB7F8948091CF039091D003A0916A
:101F5000D103B091D20326B5A89B05C02F3F19F03D
:101F60000196A11DB11D3FBFBA2FA92F982F882719
:101F7000820F911DA11DB11DBC01CD0142E0660F74
:101F8000771F881F991F4A95D1F70895CF93DF9344
:101F9000D82FC62F0E94740BDEBD0E94740FCEBDD9
:101FA000DF91CF910C94690BCF93DF9360E080E2D7
:101FB0000E94C60F0E94740B81E28EBD0E94740FB6
:101FC00080E28EBD0E94740F8FE58EBD0E94690B6A
:101FD0000E94740B82E28EBD0E94740F1EBC0E9490
:101FE000740F85E08EBD0E94690B0E94740B289AC5
:101FF0002098809100018EBDC1E0D1E00E94740F55
:1020000089918EBD82E0C038D807C1F70E94690B64
:1020100062E080E2DF91CF910C94C60F61157105EB
:1020200051F0FB0101900020E9F73197AF01461B09
:10203000570B0C94D40880E090E008950C940E1097
:102040006F927F928F929F92AF92BF92CF92DF92C8
:10205000EF92FF920F931F93CF93DF93C82FD62F4A
:10206000F42E702EC22ED12CC61AD108D7FE03C072
:10207000D194C194D108AF2CB12CAC1AB108B7FEE1
:1020800003C0B194A194B108AC14BD0434F48F2DF5
:10209000F22E282F8C2FCD2FD82FFC1630F48D2F19
:1020A000D22F282F8C2FCF2DF82E8F2C8C1A822FE9
:1020B00090E08D1B910997FF03C09195819591093F
:1020C000182F982C9694D21718F066246A9402C0A0
:1020D00066246394CF15A8F40E2D272DAC14BD04EF
:1020E0001CF44C2F6D2F02C04D2F6C2F85EB93E00D
:1020F0000E947A0B911A97FE02C0D60D980CCF5F02
:10210000E9CFDF91CF911F910F91FF90EF90DF907A
:10211000CF90BF90AF909F908F907F906F900895D9
:10212000CF93DF93282F30E0F901EF50FF4E8491D9
:10213000F901E352FF4ED491F901E753FF4EC491E8
:10214000CC2391F081110E94780FEC2FF0E0EE0F7C
:10215000FF1FE154FF4EA591B491EC91ED2381E076
:1021600090E021F480E002C080E090E0DF91CF9128
:1021700008951F93CF93DF93282F30E0F901EF509C
:10218000FF4E8491F901E352FF4ED491F901E753D8
:10219000FF4EC491CC23C1F0162F81110E94780FFD
:1021A000EC2FF0E0EE0FFF1FEB54FF4EA591B49122
:1021B0009FB7F894111104C08C91D095D82302C018
:1021C000EC91DE2BDC939FBFDF91CF911F9108959F
:1021D000CF93DF9390E0FC01E352FF4E2491FC018A
:1021E000E753FF4E8491882361F190E0880F991F97
:1021F000FC01E555FF4EC591D491FC01EB54FF4E17
:10220000A591B491611109C09FB7F8948881209578
:1022100082238883EC912E230BC0623061F49FB738
:10222000F8948881322F309583238883EC912E2B6C
:102230002C939FBF06C08FB7F894E8812E2B28837C
:102240008FBFDF91CF9108958F929F92AF92BF92EF
:10225000CF92DF92EF92FF926B017C010E94A10F5F
:102260004B015C01C114D104E104F104F1F00E94BE
:10227000A10FDC01CB0188199909AA09BB09883E85
:102280009340A105B10570F321E0C21AD108E1081D
:10229000F10888EE880E83E0981EA11CB11CC114C1
:1022A000D104E104F10419F7DDCFFF90EF90DF9046
:1022B000CF90BF90AF909F908F9008951F920F92F4
:1022C0000FB60F9211242F933F938F939F93AF9349
:1022D000BF938091CB039091CC03A091CD03B0919B
:1022E000CE033091CA0323E0230F2D3720F401964B
:1022F000A11DB11D05C026E8230F0296A11DB11D29
:102300002093CA038093CB039093CC03A093CD0377
:10231000B093CE038091CF039091D003A091D103CD
:10232000B091D2030196A11DB11D8093CF0390936C
:10233000D003A093D103B093D203BF91AF919F91EB
:102340008F913F912F910F900FBE0F901F90189576
:10235000CF93DF9300D000D000D0CDB7DEB7789414
:1023600084B5826084BD84B5816084BD85B582609A
:1023700085BD85B5816085BD80916E00816080934B
:102380006E001092810080918100826080938100B4
:1023900080918100816080938100809180008160C4
:1023A000809380008091B10084608093B10080911F
:1023B000B00081608093B00080917A008460809347
:1023C0007A0080917A00826080937A0080917A000E
:1023D000816080937A0080917A00806880937A008F
:1023E0001092C1001092BD03EAEAFBE0E491E09391
:1023F000BB03EBEAFBE0E491E093BC03ECEAFBE017
:10240000E491E093BE03EDEAFBE0E491E093BF03C7
:10241000EEEAFBE08491EFEAFBE0E491F0E024E6F1
:10242000829FE00DF11D1124F093C303E093C203DA
:1024300081E08093B9031092BA031092C003109206
:10244000C1035F98579A61E084E00E94E81061E060
:1024500084E00E94B9106AE070E080E090E00E94A1
:1024600024115F9A579865E070E080E090E00E9448
:1024700024115F98579A8CB58C7F8CBD8DB5816087
:102480008DBD2A9A22982898209A60E08DE00E94BB
:10249000B91060E08BE00E94B91061E08DE00E940D
:1024A000E81061E08BE00E94E8108CB580618CBD83
:1024B00065E070E080E090E00E9424115F9A5798F8
:1024C0006AE070E080E090E00E9424116FE288EA08
:1024D0000E94C60F64E18DE80E94C60F0E94740B33
:1024E00081EA8EBD0E94690B0E94740B88EC8EBD40
:1024F0000E94690B6FE881E80E94C60F61EF89EDC9
:102500000E94C60F60E48BED0E94C60F0E94740B00
:102510008FEA8EBD0E94690B60E080E20E94C60FC8
:102520000E94740B81E28EBD0E94740F1EBC0E943B
:10253000740F8FE78EBD0E94690B0E94740B82E2BC
:102540008EBD0E94740F1EBC0E94740F87E08EBD6A
:102550000E94690B0E94740B289A20981EBC0FEFF2
:1025600013E00E94740F1EBC01501109D1F70E94A4
:10257000690B62E080E20E94C60F61E082E00E9487
:10258000E81061E086E00E94E81060E086E00E94CA
:10259000B91062E085E00E94E81062E083E00E94EA
:1025A000E81080E891E0E0E0F1E0DF019C011D929D
:1025B00021503040E1F798E2392E6F0120E8A22E39
:1025C000BB24B3943FE0432E512C2224239448E9AA
:1025D000642E42E0742E58E7852E912C85E00E94EF
:1025E00090108C01019709F075C060E082E00E94B4
:1025F000B9101092C0031092C10368ED72E085EB30
:1026000093E00E941E103092C0033092C1031A82E0
:1026100019821C821B821E821D8261E070E0CE0145
:1026200001960E94EA0A29813A8181110DC0211583
:10263000310519F0C9010E94EB181A8219821E8215
:102640001D821C821B8207C01E830D8363EE72E015
:10265000C9010E94481A8091C8039091C903E09073
:10266000C403F090C503E114F104C9F0009719F117
:102670000D811E81080F191FB801CE0101960E941D
:10268000EA0A882361F029813A818D819E81B70110
:10269000820F931F0E94481A1E830D830CC08981EC
:1026A0009A81009711F00E94EB181A8219821E82FB
:1026B0001D821C821B824D815E8169817A8185EB3E
:1026C00093E00E94D40889819A810E94EB180E94AD
:1026D000D40F84CF83E00E949010892B09F031C180
:1026E000D601F5011D923197E9F71092C0031092BF
:1026F000C10365EE72E085EB93E00E941E1010921C
:10270000C003FAE0F093C10360EF72E085EB93E061
:102710000E941E100E94D40F60ED77E080E090E0F0
:102720000E942411D601F5011D923197E9F781E14C
:1027300090E00E9453188C01E8E2DC011296EC93C1
:102740001297FEE11396FC93139715961C921E9216
:10275000149717965C924E92169719961C921E9299
:1027600018971A962C928FE090E00E94AF08F82EEE
:1027700080E090E00E94AF08F81608F4F82ED80127
:102780001B96FC921B9711967C926E921C961C9243
:102790001C978FE01D968C931D971E961C921E977A
:1027A00050961C921E921F97C8010E94B90BC80137
:1027B0000E94260AC8010E94BF0E109317030093BF
:1027C00016031092C0031092C1036BEF72E085EB09
:1027D00093E00E941E100E94D40F61E086E00E94E8
:1027E000B9106AEF70E080E090E00E94241160E090
:1027F00086E00E94B91060ED77E080E090E00E94F2
:10280000241183E00E949010892B09F454C060E0E9
:1028100082E00E94B910F6019501119221503040DA
:10282000E1F71092C00389E18093C10366E073E091
:1028300085EB93E00E941E100E94D40F61E086E0B9
:102840000E94B91068EE73E080E090E00E942411CD
:1028500060E086E00E94B9106AEF70E080E090E0EE
:102860000E94241161E086E00E94B91064EF71E0DB
:1028700080E090E00E94241160E086E00E94B910A0
:102880006AEF70E080E090E00E94241161E086E051
:102890000E94B9106AEF70E080E090E00E9424117D
:1028A00060E086E00E94B91068EE73E080E090E09E
:1028B0000E94241148C061E082E00E94B91088E0C3
:1028C000E82E87E0F82E83E00E949010019711F423
:1028D0000E94E609C701B4010E947416892B31F5E4
:1028E0000091160310911703D80116968D919C91B3
:1028F000179786179707C4F014968D919C9115979A
:10290000681779078CF019967C936E931897CB0112
:102910000E94AF08F80182870190F081E02D0190BC
:10292000F081E02DC80109950E94D40F64EF71E099
:1029300080E090E00E942411F1E0EF1AF10819F60E
:1029400066CF0E94E6090E94D60948CE8091C40352
:102950009091C5030C94EB1810921B0310921A036C
:1029600088EE93E0A0E0B0E080931C0390931D03F9
:10297000A0931E03B0931F0386EA92E0909319037D
:102980008093180385EC90E09093250380932403B3
:1029900084EC90E0909327038093260380EC90E0F2
:1029A000909329038093280381EC90E090932B036C
:1029B00080932A0382EC90E090932D0380932C0364
:1029C00086EC90E090932F0380932E0310923103B6
:1029D0001092320310923303109234031092B80312
:1029E0001092B70388EB92E09093B6038093B503FF
:1029F0001092C5031092C4031092C7031092C6032D
:102A00001092C9031092C80363E070E084EC93E075
:102A10000E94EA0A2091C4033091C503811113C0BA
:102A20002115310519F0C9010E94EB181092C50358
:102A30001092C4031092C9031092C8031092C703E6
:102A40001092C603089583E090E09093C9038093A9
:102A5000C80362E173E0C9010C94481AE89409C004
:102A600097FB3EF490958095709561957F4F8F4FC1
:102A70009F4F9923A9F0F92F96E9BB279395F695D7
:102A8000879577956795B795F111F8CFFAF4BB0F55
:102A900011F460FF1BC06F5F7F4F8F4F9F4F16C0B9
:102AA000882311F096E911C0772321F09EE8872F43
:102AB000762F05C0662371F096E8862F70E060E0FF
:102AC0002AF09A95660F771F881FDAF7880F969578
:102AD000879597F908950E947E150C94EF150E9432
:102AE000E11538F00E94E81520F0952311F00C94C0
:102AF000D8150C94DE1511240C9423160E94001690
:102B000070F3959FC1F3950F50E0551F629FF00140
:102B1000729FBB27F00DB11D639FAA27F00DB11D59
:102B2000AA1F649F6627B00DA11D661F829F2227E2
:102B3000B00DA11D621F739FB00DA11D621F839F69
:102B4000A00D611D221F749F3327A00D611D231F3F
:102B5000849F600D211D822F762F6A2F11249F578D
:102B600050409AF0F1F088234AF0EE0FFF1FBB1F90
:102B7000661F771F881F91505040A9F79E3F51054F
:102B800080F00C94D8150C9423165F3FE4F3983E24
:102B9000D4F3869577956795B795F795E7959F5FF9
:102BA000C1F7FE2B880F911D9695879597F908958B
:102BB00097F99F6780E870E060E008959FEF80ECF0
:102BC000089500240A941616170618060906089593
:102BD00000240A9412161306140605060895092EF9
:102BE0000394000C11F4882352F0BB0F40F4BF2B68
:102BF00011F460FF04C06F5F7F4F8F4F9F4F0895A8
:102C000057FD9058440F551F59F05F3F71F047959D
:102C1000880F97FB991F61F09F3F79F08795089582
:102C2000121613061406551FF2CF4695F1DF08C0A1
:102C3000161617061806991FF1CF869571056105BE
:102C400008940895E894BB2766277727CB0197F966
:102C500008952F923F924F925F926F927F928F9240
:102C60009F92AF92BF92CF92DF92EF92FF920F931B
:102C70001F93CF93DF93CDB7DEB7CA1BDB0B0FB625
:102C8000F894DEBF0FBECDBF09942A8839884888E2
:102C90005F846E847D848C849B84AA84B984C88478
:102CA000DF80EE80FD800C811B81AA81B981CE0F6F
:102CB000D11D0FB6F894DEBF0FBECDBFED01089554
:102CC000AA1BBB1B51E107C0AA1FBB1FA617B70752
:102CD00010F0A61BB70B881F991F5A95A9F780956E
:102CE0009095BC01CD01089597FB072E16F4009432
:102CF00007D077FD09D00E94601607FC05D03EF48E
:102D0000909581959F4F0895709561957F4F089597
:102D1000A1E21A2EAA1BBB1BFD010DC0AA1FBB1FDF
:102D2000EE1FFF1FA217B307E407F50720F0A21B51
:102D3000B30BE40BF50B661F771F881F991F1A94BE
:102D400069F760957095809590959B01AC01BD01E8
:102D5000CF010895EE0FFF1F0590F491E02D099427
:102D60005058BB27AA270E94C8160C94EF150E9442
:102D7000E11538F00E94E81520F039F49F3F19F46E
:102D800026F40C94DE150EF4E095E7FB0C94D815B0
:102D9000E92F0E94001658F3BA17620773078407D9
:102DA000950720F079F4A6F50C9422160EF4E09520
:102DB0000B2EBA2FA02D0B01B90190010C01CA01F5
:102DC000A0011124FF27591B99F0593F50F4503EA0
:102DD00068F11A16F040A22F232F342F4427585F92
:102DE000F3CF469537952795A795F0405395C9F7AA
:102DF0007EF41F16BA0B620B730B840BBAF0915062
:102E0000A1F0FF0FBB1F661F771F881FC2F70EC000
:102E1000BA0F621F731F841F48F4879577956795D3
:102E2000B795F7959E3F08F0B0CF9395880F08F0BF
:102E30009927EE0F9795879508950E94C517E395FA
:102E40000C94EE170E9436170C94EF150E94E815AB
:102E500058F00E94E11540F029F45F3F29F00C94EE
:102E6000D81551110C9423160C94DE150E940016EF
:102E700068F39923B1F3552391F3951B550BBB27A9
:102E8000AA2762177307840738F09F5F5F4F220FEE
:102E9000331F441FAA1FA9F335D00E2E3AF0E0E8E5
:102EA00032D091505040E695001CCAF72BD0FE2F2F
:102EB00029D0660F771F881FBB1F261737074807C3
:102EC000AB07B0E809F0BB0B802DBF01FF2793587B
:102ED0005F4F3AF09E3F510578F00C94D8150C9452
:102EE00023165F3FE4F3983ED4F386957795679574
:102EF000B795F7959F5FC9F7880F911D96958795B0
:102F000097F90895E1E0660F771F881FBB1F6217CE
:102F100073078407BA0720F0621B730B840BBA0B8C
:102F2000EE1F88F7E09508950E94081688F09F57D5
:102F300098F0B92F9927B751B0F0E1F0660F771FDD
:102F4000881F991F1AF0BA95C9F714C0B13091F0D3
:102F50000E942216B1E008950C942216672F782F54
:102F60008827B85F39F0B93FCCF386957795679598
:102F7000B395D9F73EF490958095709561957F4F04
:102F80008F4F9F4F08950C94DE150E940816D8F3BA
:102F9000E894E0E0BB279F57F0F02AED3FE049ECD2
:102FA00006C0EE0FBB0F661F771F881F28F0B23ACE
:102FB00062077307840728F0B25A620B730B840B05
:102FC000E3959A9572F7803830F49A95BB0F661F97
:102FD000771F881FD2F790480C940C18EF93E0FFEE
:102FE00007C0A2EA2AED3FE049EC5FEB0E94C81659
:102FF0000E94EF150F90039401FC9058E8E6F0E072
:103000000C9418189F930E94C5170F9007FCEE5F51
:103010000C94EE179F3F31F0915020F487957795EF
:103020006795B795880F911D9695879597F908959F
:103030009F938F937F936F93FF93EF939B01AC01CB
:103040000E946B15EF91FF910E942C182F913F91D8
:103050004F915F910C946B15DF93CF931F930F9358
:10306000FF92EF92DF927B018C01689406C0DA2E0A
:10307000EF010E947E15FE01E894A59125913591FE
:1030800045915591A6F3EF010E94C816FE019701E4
:10309000A801DA9469F7DF90EF90FF900F911F91EC
:1030A000CF91DF9108950F931F93CF93DF938230D9
:1030B000910510F482E090E0E091D503F091D60301
:1030C00020E030E0A0E0B0E0309719F1408151817C
:1030D0000281138148175907C8F08417950769F4CE
:1030E000109731F012960C93129713961C9327C0E9
:1030F0000093D5031093D60322C02115310519F092
:103100004217530718F49A01BD01EF01DF01F801DE
:10311000DBCF21153105F9F0281B390B243031059F
:1031200080F48A819B816115710521F0FB019383F5
:10313000828304C09093D6038093D503FE01329618
:1031400044C0FE01E20FF31F819391932250310995
:10315000398328833AC02091D3033091D403232BA1
:1031600041F420918202309183023093D403209362
:10317000D30320918002309181022115310541F461
:103180002DB73EB74091840250918502241B350B28
:10319000E091D303F091D403E217F307A0F42E1BC0
:1031A0003F0B2817390778F0AC014E5F5F4F2417AB
:1031B000350748F04E0F5F1F5093D4034093D3035D
:1031C0008193919302C0E0E0F0E0CF01DF91CF91D5
:1031D0001F910F910895CF93DF93009709F481C059
:1031E000FC01329713821282A091D503B091D603CD
:1031F000109781F420813181820F931F2091D30396
:103200003091D4032817390751F5F093D403E09394
:10321000D30367C0ED0120E030E0CE17DF0740F4B4
:103220004A815B819E0141155105F1F0EA01F5CF1C
:10323000D383C28340815181840F951FC817D9075A
:1032400059F488819981840F951F02969183808318
:103250008A819B81938382832115310529F4F09320
:10326000D603E093D5033DC0E901FB83EA8349918E
:103270005991C40FD51FEC17FD0761F4808191812E
:10328000840F951F0296E901998388838281938137
:103290009B838A83E0E0F0E012968D919C911397D6
:1032A000009719F0FD01DC01F7CF8D919C911197EA
:1032B0009D012E5F3F4F820F931F2091D3033091CA
:1032C000D4032817390769F4309729F41092D603EC
:1032D0001092D50302C013821282B093D403A0933C
:1032E000D303DF91CF910895A0E0B0E0EAE7F9E1E0
:1032F0000C942D16EC01009721F4CB010E94531879
:10330000B4C0FC01E60FF71F9C0122503109E217FF
:10331000F30708F4A8C0D9010D911C911197061765
:103320001707B0F00530110508F49BC0C8010497D9
:103330008617970708F495C002501109061B170B52
:10334000019311936D937C93CF010E94EB1889C078
:103350005B01A01AB10A4C01800E911EA091D50309
:10336000B091D603612C712CE12CF12C109709F44B
:1033700046C08D919C911197A815B905B1F56C01C6
:1033800042E0C40ED11CCA14DB0478F14C018A1847
:103390009B08640142E0C40ED11C1296BC901297A7
:1033A0001396AC91B5E0CB16D10440F0B282A38362
:1033B00091828082D9016D937C9309C00E5F1F4F6B
:1033C000800F911FF90191838083EB2DFA2FE11477
:1033D000F10431F0D7011396FC93EE93129741C09C
:1033E000F093D603E093D5033CC06816790608F441
:1033F0003C017D0112960D90BC91A02DB7CF80911C
:10340000D3039091D40388169906E1F466167706E3
:10341000C8F48091800290918102009741F48DB7A9
:103420009EB74091840250918502841B950BE8174A
:10343000F907C8F4F093D403E093D303F90171833F
:1034400060830FC0CB010E9453187C01009759F094
:10345000A801BE010E943F1ACE010E94EB18C701CD
:1034600004C0CE0102C080E090E0CDB7DEB7EEE050
:103470000C94491681E090E0F8940C944F1AFB01EB
:10348000DC0102C001900D9241505040D8F70895E0
:10349000FB01DC0101900D920020E1F7089518E096
:1034A000C4E8D8E004C0FE010E94AA162196C538DF
:0834B000D107C9F7F894FFCF22
:1034B8000000000000000000000000000000000004
:1034C8000000000000000000E0F8FCFEFFFFFFFF26
:1034D800FFFFFF0F070706060080800000000000BE
:1034E80000000000000000000000000000000000D4
:1034F80000000000000000000000000000000000C4
:10350800000080808080808081070F3F3FFFFFFFA1
:10351800FFFFFFFFFEFEFCFCFCFEFFFFFFFCF8E0E8
:103528000000000000000000000000000000000093
:10353800000000000000000000000000000000FC87
:10354800FEFFFFFFFFFFFFF1E0E0E0E0E0F0FDFF3E
:10355800FFFFFFFFFFFFFFFFFFFFFFFFFFFFFFFF73
:103568000000000000000000000000000000000053
:10357800000000000000000000000000000000FF44
:10358800FFFFFFFFFFFFFFFFFFFFFFFFFFFFFFFF43
:10359800FFFFFFFFFFFFFFFFFFFFFF7F3F1F070149
:1035A8000000000000000000000000000000000013
:1035B800000000000000000000000000000000FF04
:1035C800FFFFFFFFFFFFFFFF7F3F1F1F0F0F0F0FC3
:1035D8000F0F0F0F0707070303010000000000008B
:1035E80000000000000000000000000000000000D3
:1035F800000000000000000000000000000000FFC4
:103608007F3F1F0F070301000000000000000000BB
:1036180000000000000000000000000000000000A2
:103628000000000000000000000000000000000092
:103638000000D7032000AA0BA405AE0490013201B4
:10364800CC00860000000000BF0EB90BE009200A7C
:10365800260A000000006709D408FE08B4092F09EB
:103668000D09210900000000CC0DD408E309E10987
:10367800436C6F7365206C696420005261646961F2
:1036880074696E672020200057616974696E67202D
:10369800202000760044414E47455220202020003B
:1036A80055562D4320212120202000526164696154
:1036B80074696E67200046696E69736865642020C6
:0636C8002000312E30004D
:00000001FF
